{
  "_format": "hh-sol-artifact-1",
  "contractName": "Assessment",
  "sourceName": "contracts/Assessment.sol",
  "abi": [
    {
      "inputs": [
        {
          "internalType": "uint256",
          "name": "initBalance",
          "type": "uint256"
        }
      ],
      "stateMutability": "payable",
      "type": "constructor"
    },
    {
      "inputs": [
        {
          "internalType": "uint256",
          "name": "balance",
          "type": "uint256"
        }
      ],
      "name": "InsufficientBalance",
      "type": "error"
    },
    {
      "inputs": [
        {
          "internalType": "uint256",
          "name": "totalCopies",
          "type": "uint256"
        }
      ],
      "name": "InsufficientCharacters",
      "type": "error"
    },
    {
      "anonymous": false,
      "inputs": [],
      "name": "BurnCharacters",
      "type": "event"
    },
    {
      "anonymous": false,
      "inputs": [],
      "name": "GetFreeRoll",
      "type": "event"
    },
    {
      "anonymous": false,
      "inputs": [
        {
          "indexed": false,
          "internalType": "uint256",
          "name": "charValue",
          "type": "uint256"
        }
      ],
      "name": "Roll",
      "type": "event"
    },
    {
      "inputs": [],
      "name": "balance",
      "outputs": [
        {
          "internalType": "uint256",
          "name": "",
          "type": "uint256"
        }
      ],
      "stateMutability": "view",
      "type": "function"
    },
    {
      "inputs": [],
      "name": "burnCharacters",
      "outputs": [],
      "stateMutability": "payable",
      "type": "function"
    },
    {
      "inputs": [
        {
          "internalType": "uint256",
          "name": "",
          "type": "uint256"
        }
      ],
      "name": "characters",
      "outputs": [
        {
          "internalType": "uint256",
          "name": "",
          "type": "uint256"
        }
      ],
      "stateMutability": "view",
      "type": "function"
    },
    {
      "inputs": [],
      "name": "getFreeRoll",
      "outputs": [],
      "stateMutability": "payable",
      "type": "function"
    },
    {
      "inputs": [],
      "name": "owner",
      "outputs": [
        {
          "internalType": "address payable",
          "name": "",
          "type": "address"
        }
      ],
      "stateMutability": "view",
      "type": "function"
    },
    {
      "inputs": [
        {
          "internalType": "uint256",
          "name": "charValue",
          "type": "uint256"
        }
      ],
      "name": "roll",
      "outputs": [],
      "stateMutability": "payable",
      "type": "function"
    }
  ],
  "bytecode": "0x6080604052604051610bab380380610bab833981810160405281019061002591906100ad565b336000806101000a81548173ffffffffffffffffffffffffffffffffffffffff021916908373ffffffffffffffffffffffffffffffffffffffff16021790555080600181905550506100da565b600080fd5b6000819050919050565b61008a81610077565b811461009557600080fd5b50565b6000815190506100a781610081565b92915050565b6000602082840312156100c3576100c2610072565b5b60006100d184828501610098565b91505092915050565b610ac2806100e96000396000f3fe6080604052600436106100555760003560e01c80631f7b4f301461005a57806341a97a5b146100765780634810bc59146100805780638da5cb5b146100bd578063b69ef8a8146100e8578063fd1700eb14610113575b600080fd5b610074600480360381019061006f919061077e565b61011d565b005b61007e61030f565b005b34801561008c57600080fd5b506100a760048036038101906100a2919061077e565b6103de565b6040516100b491906107ba565b60405180910390f35b3480156100c957600080fd5b506100d26103f6565b6040516100df9190610816565b60405180910390f35b3480156100f457600080fd5b506100fd61041a565b60405161010a91906107ba565b60405180910390f35b61011b610420565b005b60008054906101000a900473ffffffffffffffffffffffffffffffffffffffff1673ffffffffffffffffffffffffffffffffffffffff163373ffffffffffffffffffffffffffffffffffffffff16146101ab576040517f08c379a00000000000000000000000000000000000000000000000000000000081526004016101a2906108b4565b60405180910390fd5b60006001549050600060026000848152602001908152602001600020549050600180541015610213576001546040517f9266535100000000000000000000000000000000000000000000000000000000815260040161020a91906107ba565b60405180910390fd5b60018060008282546102259190610903565b9250508190555060016002600085815260200190815260200160002060008282546102509190610937565b925050819055506001826102649190610903565b600154141580610293575060018161027c9190610937565b600260008581526020019081526020016000205414155b156102d3576040517f08c379a00000000000000000000000000000000000000000000000000000000081526004016102ca906109dd565b60405180910390fd5b7fb682b75453cfd68407d152acdf75c3ae0088182f59191a7006c09071adad76a38360405161030291906107ba565b60405180910390a1505050565b60008054906101000a900473ffffffffffffffffffffffffffffffffffffffff1673ffffffffffffffffffffffffffffffffffffffff163373ffffffffffffffffffffffffffffffffffffffff161461039d576040517f08c379a0000000000000000000000000000000000000000000000000000000008152600401610394906108b4565b60405180910390fd5b6000600154905060018060008282546103b69190610937565b925050819055506001816103ca9190610937565b600154146103db576103da6109fd565b5b50565b60026020528060005260406000206000915090505481565b60008054906101000a900473ffffffffffffffffffffffffffffffffffffffff1681565b60015481565b60008054906101000a900473ffffffffffffffffffffffffffffffffffffffff1673ffffffffffffffffffffffffffffffffffffffff163373ffffffffffffffffffffffffffffffffffffffff16146104ae576040517f08c379a00000000000000000000000000000000000000000000000000000000081526004016104a5906108b4565b60405180910390fd5b60006001549050600060026000600681526020019081526020016000205460026000600581526020019081526020016000205460026000600481526020019081526020016000205460026000600381526020019081526020016000205460026000600281526020019081526020016000205461052a9190610937565b6105349190610937565b61053e9190610937565b6105489190610937565b90506000600a826105599190610a5b565b905060018110156105a157816040517f567d34ef00000000000000000000000000000000000000000000000000000000815260040161059891906107ba565b60405180910390fd5b6000600260006002815260200190815260200160002081905550600060026000600381526020019081526020016000208190555060006002600060048152602001908152602001600020819055506000600260006005815260200190815260200160002081905550600060026000600681526020019081526020016000208190555080600160008282546106359190610937565b9250508190555080836106489190610937565b60015414610659576106586109fd565b5b60006002600060028152602001908152602001600020541461067e5761067d6109fd565b5b6000600260006003815260200190815260200160002054146106a3576106a26109fd565b5b6000600260006004815260200190815260200160002054146106c8576106c76109fd565b5b6000600260006005815260200190815260200160002054146106ed576106ec6109fd565b5b600060026000600681526020019081526020016000205414610712576107116109fd565b5b7fb11adc57da4c927a877f55f0a1a0fc44a9e16326a7b992edf8d1eb96af52f1ad60405160405180910390a1505050565b600080fd5b6000819050919050565b61075b81610748565b811461076657600080fd5b50565b60008135905061077881610752565b92915050565b60006020828403121561079457610793610743565b5b60006107a284828501610769565b91505092915050565b6107b481610748565b82525050565b60006020820190506107cf60008301846107ab565b92915050565b600073ffffffffffffffffffffffffffffffffffffffff82169050919050565b6000610800826107d5565b9050919050565b610810816107f5565b82525050565b600060208201905061082b6000830184610807565b92915050565b600082825260208201905092915050565b7f596f7520617265206e6f7420746865206f776e6572206f66207468697320616360008201527f636f756e74000000000000000000000000000000000000000000000000000000602082015250565b600061089e602583610831565b91506108a982610842565b604082019050919050565b600060208201905081810360008301526108cd81610891565b9050919050565b7f4e487b7100000000000000000000000000000000000000000000000000000000600052601160045260246000fd5b600061090e82610748565b915061091983610748565b9250828203905081811115610931576109306108d4565b5b92915050565b600061094282610748565b915061094d83610748565b9250828201905080821115610965576109646108d4565b5b92915050565b7f4572726f6e656f7573206368616e676520696e2073746174652e2e2e2072657660008201527f657274696e672e00000000000000000000000000000000000000000000000000602082015250565b60006109c7602783610831565b91506109d28261096b565b604082019050919050565b600060208201905081810360008301526109f6816109ba565b9050919050565b7f4e487b7100000000000000000000000000000000000000000000000000000000600052600160045260246000fd5b7f4e487b7100000000000000000000000000000000000000000000000000000000600052601260045260246000fd5b6000610a6682610748565b9150610a7183610748565b925082610a8157610a80610a2c565b5b82820490509291505056fea2646970667358221220ceeec0335200b5f31900c595d3642fc29f34ddf9dc30208b3273a2bfb0d6105764736f6c63430008110033",
  "linkReferences": {},
  "deployedLinkReferences": {}
}