{
  "_format": "hh-sol-artifact-1",
  "contractName": "Gacha",
  "sourceName": "contracts/Gacha.sol",
  "abi": [
    {
      "inputs": [
        {
          "internalType": "uint256",
          "name": "initBalance",
          "type": "uint256"
        }
      ],
      "stateMutability": "payable",
      "type": "constructor"
    },
    {
      "inputs": [
        {
          "internalType": "uint256",
          "name": "balance",
          "type": "uint256"
        }
      ],
      "name": "InsufficientBalance",
      "type": "error"
    },
    {
      "inputs": [
        {
          "internalType": "uint256",
          "name": "totalCopies",
          "type": "uint256"
        }
      ],
      "name": "InsufficientCharacters",
      "type": "error"
    },
    {
      "anonymous": false,
      "inputs": [],
      "name": "BurnCharacters",
      "type": "event"
    },
    {
      "anonymous": false,
      "inputs": [],
      "name": "GetFreeRoll",
      "type": "event"
    },
    {
      "anonymous": false,
      "inputs": [
        {
          "indexed": false,
          "internalType": "uint256",
          "name": "charValue",
          "type": "uint256"
        }
      ],
      "name": "Roll",
      "type": "event"
    },
    {
      "inputs": [],
      "name": "balance",
      "outputs": [
        {
          "internalType": "uint256",
          "name": "",
          "type": "uint256"
        }
      ],
      "stateMutability": "view",
      "type": "function"
    },
    {
      "inputs": [],
      "name": "burnCharacters",
      "outputs": [],
      "stateMutability": "payable",
      "type": "function"
    },
    {
      "inputs": [
        {
          "internalType": "uint256",
          "name": "",
          "type": "uint256"
        }
      ],
      "name": "characters",
      "outputs": [
        {
          "internalType": "uint256",
          "name": "",
          "type": "uint256"
        }
      ],
      "stateMutability": "view",
      "type": "function"
    },
    {
      "inputs": [],
      "name": "getBalance",
      "outputs": [
        {
          "internalType": "uint256",
          "name": "",
          "type": "uint256"
        }
      ],
      "stateMutability": "view",
      "type": "function"
    },
    {
      "inputs": [],
      "name": "getFiveStarCopies",
      "outputs": [
        {
          "internalType": "uint256",
          "name": "",
          "type": "uint256"
        }
      ],
      "stateMutability": "view",
      "type": "function"
    },
    {
      "inputs": [],
      "name": "getFourStarCopies",
      "outputs": [
        {
          "internalType": "uint256",
          "name": "",
          "type": "uint256"
        }
      ],
      "stateMutability": "view",
      "type": "function"
    },
    {
      "inputs": [],
      "name": "getFreeRoll",
      "outputs": [],
      "stateMutability": "payable",
      "type": "function"
    },
    {
      "inputs": [],
      "name": "getSixStarCopies",
      "outputs": [
        {
          "internalType": "uint256",
          "name": "",
          "type": "uint256"
        }
      ],
      "stateMutability": "view",
      "type": "function"
    },
    {
      "inputs": [],
      "name": "getThreeStarCopies",
      "outputs": [
        {
          "internalType": "uint256",
          "name": "",
          "type": "uint256"
        }
      ],
      "stateMutability": "view",
      "type": "function"
    },
    {
      "inputs": [],
      "name": "getTwoStarCopies",
      "outputs": [
        {
          "internalType": "uint256",
          "name": "",
          "type": "uint256"
        }
      ],
      "stateMutability": "view",
      "type": "function"
    },
    {
      "inputs": [],
      "name": "owner",
      "outputs": [
        {
          "internalType": "address payable",
          "name": "",
          "type": "address"
        }
      ],
      "stateMutability": "view",
      "type": "function"
    },
    {
      "inputs": [
        {
          "internalType": "uint256",
          "name": "charValue",
          "type": "uint256"
        }
      ],
      "name": "roll",
      "outputs": [],
      "stateMutability": "payable",
      "type": "function"
    }
  ],
  "bytecode": "0x6080604052604051610d95380380610d95833981810160405281019061002591906100ad565b336000806101000a81548173ffffffffffffffffffffffffffffffffffffffff021916908373ffffffffffffffffffffffffffffffffffffffff16021790555080600181905550506100da565b600080fd5b6000819050919050565b61008a81610077565b811461009557600080fd5b50565b6000815190506100a781610081565b92915050565b6000602082840312156100c3576100c2610072565b5b60006100d184828501610098565b91505092915050565b610cac806100e96000396000f3fe6080604052600436106100a75760003560e01c80634810bc59116100645780634810bc591461017e5780637780fecb146101bb5780638da5cb5b146101e6578063acc89bbe14610211578063b69ef8a81461023c578063fd1700eb14610267576100a7565b80630de14c4d146100ac5780630f555bf7146100d757806312065fe0146101025780631f7b4f301461012d5780633d8ef5281461014957806341a97a5b14610174575b600080fd5b3480156100b857600080fd5b506100c1610271565b6040516100ce9190610946565b60405180910390f35b3480156100e357600080fd5b506100ec61028d565b6040516100f99190610946565b60405180910390f35b34801561010e57600080fd5b506101176102a9565b6040516101249190610946565b60405180910390f35b61014760048036038101906101429190610992565b6102b3565b005b34801561015557600080fd5b5061015e6104a5565b60405161016b9190610946565b60405180910390f35b61017c6104c1565b005b34801561018a57600080fd5b506101a560048036038101906101a09190610992565b610590565b6040516101b29190610946565b60405180910390f35b3480156101c757600080fd5b506101d06105a8565b6040516101dd9190610946565b60405180910390f35b3480156101f257600080fd5b506101fb6105c4565b6040516102089190610a00565b60405180910390f35b34801561021d57600080fd5b506102266105e8565b6040516102339190610946565b60405180910390f35b34801561024857600080fd5b50610251610604565b60405161025e9190610946565b60405180910390f35b61026f61060a565b005b6000600260006002815260200190815260200160002054905090565b6000600260006004815260200190815260200160002054905090565b6000600154905090565b60008054906101000a900473ffffffffffffffffffffffffffffffffffffffff1673ffffffffffffffffffffffffffffffffffffffff163373ffffffffffffffffffffffffffffffffffffffff1614610341576040517f08c379a000000000000000000000000000000000000000000000000000000000815260040161033890610a9e565b60405180910390fd5b600060015490506000600260008481526020019081526020016000205490506001805410156103a9576001546040517f926653510000000000000000000000000000000000000000000000000000000081526004016103a09190610946565b60405180910390fd5b60018060008282546103bb9190610aed565b9250508190555060016002600085815260200190815260200160002060008282546103e69190610b21565b925050819055506001826103fa9190610aed565b60015414158061042957506001816104129190610b21565b600260008581526020019081526020016000205414155b15610469576040517f08c379a000000000000000000000000000000000000000000000000000000000815260040161046090610bc7565b60405180910390fd5b7fb682b75453cfd68407d152acdf75c3ae0088182f59191a7006c09071adad76a3836040516104989190610946565b60405180910390a1505050565b6000600260006005815260200190815260200160002054905090565b60008054906101000a900473ffffffffffffffffffffffffffffffffffffffff1673ffffffffffffffffffffffffffffffffffffffff163373ffffffffffffffffffffffffffffffffffffffff161461054f576040517f08c379a000000000000000000000000000000000000000000000000000000000815260040161054690610a9e565b60405180910390fd5b6000600154905060018060008282546105689190610b21565b9250508190555060018161057c9190610b21565b6001541461058d5761058c610be7565b5b50565b60026020528060005260406000206000915090505481565b6000600260006006815260200190815260200160002054905090565b60008054906101000a900473ffffffffffffffffffffffffffffffffffffffff1681565b6000600260006003815260200190815260200160002054905090565b60015481565b60008054906101000a900473ffffffffffffffffffffffffffffffffffffffff1673ffffffffffffffffffffffffffffffffffffffff163373ffffffffffffffffffffffffffffffffffffffff1614610698576040517f08c379a000000000000000000000000000000000000000000000000000000000815260040161068f90610a9e565b60405180910390fd5b6000600154905060006002600060068152602001908152602001600020546002600060058152602001908152602001600020546002600060048152602001908152602001600020546002600060038152602001908152602001600020546002600060028152602001908152602001600020546107149190610b21565b61071e9190610b21565b6107289190610b21565b6107329190610b21565b905060006002826107439190610c45565b9050600181101561078b57816040517f567d34ef0000000000000000000000000000000000000000000000000000000081526004016107829190610946565b60405180910390fd5b60006002600060028152602001908152602001600020819055506000600260006003815260200190815260200160002081905550600060026000600481526020019081526020016000208190555060006002600060058152602001908152602001600020819055506000600260006006815260200190815260200160002081905550806001600082825461081f9190610b21565b9250508190555080836108329190610b21565b6001541461084357610842610be7565b5b60006002600060028152602001908152602001600020541461086857610867610be7565b5b60006002600060038152602001908152602001600020541461088d5761088c610be7565b5b6000600260006004815260200190815260200160002054146108b2576108b1610be7565b5b6000600260006005815260200190815260200160002054146108d7576108d6610be7565b5b6000600260006006815260200190815260200160002054146108fc576108fb610be7565b5b7fb11adc57da4c927a877f55f0a1a0fc44a9e16326a7b992edf8d1eb96af52f1ad60405160405180910390a1505050565b6000819050919050565b6109408161092d565b82525050565b600060208201905061095b6000830184610937565b92915050565b600080fd5b61096f8161092d565b811461097a57600080fd5b50565b60008135905061098c81610966565b92915050565b6000602082840312156109a8576109a7610961565b5b60006109b68482850161097d565b91505092915050565b600073ffffffffffffffffffffffffffffffffffffffff82169050919050565b60006109ea826109bf565b9050919050565b6109fa816109df565b82525050565b6000602082019050610a1560008301846109f1565b92915050565b600082825260208201905092915050565b7f596f7520617265206e6f7420746865206f776e6572206f66207468697320616360008201527f636f756e74000000000000000000000000000000000000000000000000000000602082015250565b6000610a88602583610a1b565b9150610a9382610a2c565b604082019050919050565b60006020820190508181036000830152610ab781610a7b565b9050919050565b7f4e487b7100000000000000000000000000000000000000000000000000000000600052601160045260246000fd5b6000610af88261092d565b9150610b038361092d565b9250828203905081811115610b1b57610b1a610abe565b5b92915050565b6000610b2c8261092d565b9150610b378361092d565b9250828201905080821115610b4f57610b4e610abe565b5b92915050565b7f4572726f6e656f7573206368616e676520696e2073746174652e2e2e2072657660008201527f657274696e672e00000000000000000000000000000000000000000000000000602082015250565b6000610bb1602783610a1b565b9150610bbc82610b55565b604082019050919050565b60006020820190508181036000830152610be081610ba4565b9050919050565b7f4e487b7100000000000000000000000000000000000000000000000000000000600052600160045260246000fd5b7f4e487b7100000000000000000000000000000000000000000000000000000000600052601260045260246000fd5b6000610c508261092d565b9150610c5b8361092d565b925082610c6b57610c6a610c16565b5b82820490509291505056fea2646970667358221220c78c0e9b19cbef48f7fe62a4fb141c3c6f98f2c5fe962bb0756082fe32246a8664736f6c63430008110033",
  "linkReferences": {},
  "deployedLinkReferences": {}
}